{
  "_format": "hh-sol-artifact-1",
  "contractName": "CommitReveal",
  "sourceName": "contracts/CommitReveal.sol",
  "abi": [
    {
      "inputs": [],
      "stateMutability": "nonpayable",
      "type": "constructor"
    },
    {
      "anonymous": false,
      "inputs": [
        {
          "indexed": true,
          "internalType": "address",
          "name": "previousOwner",
          "type": "address"
        },
        {
          "indexed": true,
          "internalType": "address",
          "name": "newOwner",
          "type": "address"
        }
      ],
      "name": "OwnershipTransferred",
      "type": "event"
    },
    {
      "inputs": [
        {
          "internalType": "bytes32",
          "name": "_secretVote",
          "type": "bytes32"
        }
      ],
      "name": "commitVote",
      "outputs": [],
      "stateMutability": "nonpayable",
      "type": "function"
    },
    {
      "inputs": [
        {
          "internalType": "string",
          "name": "vote",
          "type": "string"
        },
        {
          "internalType": "string",
          "name": "salt",
          "type": "string"
        }
      ],
      "name": "getHash",
      "outputs": [
        {
          "internalType": "bytes32",
          "name": "",
          "type": "bytes32"
        }
      ],
      "stateMutability": "view",
      "type": "function"
    },
    {
      "inputs": [
        {
          "internalType": "string",
          "name": "candidate",
          "type": "string"
        }
      ],
      "name": "getVotes",
      "outputs": [
        {
          "internalType": "uint256",
          "name": "",
          "type": "uint256"
        }
      ],
      "stateMutability": "view",
      "type": "function"
    },
    {
      "inputs": [],
      "name": "owner",
      "outputs": [
        {
          "internalType": "address",
          "name": "",
          "type": "address"
        }
      ],
      "stateMutability": "view",
      "type": "function"
    },
    {
      "inputs": [],
      "name": "renounceOwnership",
      "outputs": [],
      "stateMutability": "nonpayable",
      "type": "function"
    },
    {
      "inputs": [],
      "name": "revealDeadline",
      "outputs": [
        {
          "internalType": "uint256",
          "name": "",
          "type": "uint256"
        }
      ],
      "stateMutability": "view",
      "type": "function"
    },
    {
      "inputs": [
        {
          "internalType": "string",
          "name": "_vote",
          "type": "string"
        },
        {
          "internalType": "string",
          "name": "_salt",
          "type": "string"
        }
      ],
      "name": "revealVote",
      "outputs": [],
      "stateMutability": "nonpayable",
      "type": "function"
    },
    {
      "inputs": [],
      "name": "setStep",
      "outputs": [],
      "stateMutability": "nonpayable",
      "type": "function"
    },
    {
      "inputs": [],
      "name": "step",
      "outputs": [
        {
          "internalType": "enum CommitReveal.Step",
          "name": "",
          "type": "uint8"
        }
      ],
      "stateMutability": "view",
      "type": "function"
    },
    {
      "inputs": [
        {
          "internalType": "address",
          "name": "newOwner",
          "type": "address"
        }
      ],
      "name": "transferOwnership",
      "outputs": [],
      "stateMutability": "nonpayable",
      "type": "function"
    },
    {
      "inputs": [
        {
          "internalType": "address",
          "name": "",
          "type": "address"
        }
      ],
      "name": "voteByUser",
      "outputs": [
        {
          "internalType": "bytes32",
          "name": "",
          "type": "bytes32"
        }
      ],
      "stateMutability": "view",
      "type": "function"
    }
  ],
  "bytecode": "0x6080604052620151804262000015919062000151565b6003553480156200002557600080fd5b50620000466200003a6200004c60201b60201c565b6200005460201b60201c565b6200018c565b600033905090565b60008060009054906101000a900473ffffffffffffffffffffffffffffffffffffffff169050816000806101000a81548173ffffffffffffffffffffffffffffffffffffffff021916908373ffffffffffffffffffffffffffffffffffffffff1602179055508173ffffffffffffffffffffffffffffffffffffffff168173ffffffffffffffffffffffffffffffffffffffff167f8be0079c531659141344cd1fd0a4f28419497f9722a3daafe3b4186f6b6457e060405160405180910390a35050565b6000819050919050565b7f4e487b7100000000000000000000000000000000000000000000000000000000600052601160045260246000fd5b60006200015e8262000118565b91506200016b8362000118565b925082820190508082111562000186576200018562000122565b5b92915050565b611232806200019c6000396000f3fe608060405234801561001057600080fd5b50600436106100a95760003560e01c8063715018a611610071578063715018a614610150578063805265e51461015a5780638da5cb5b1461018a578063b14b28a3146101a8578063e25fe175146101c6578063f2fde38b146101e4576100a9565b806307b6e650146100ae57806327cf399a146100b85780633817e347146100e85780633e85892314610104578063648b813914610120575b600080fd5b6100b6610200565b005b6100d260048036038101906100cd9190610aa0565b610346565b6040516100df9190610b31565b60405180910390f35b61010260048036038101906100fd9190610aa0565b61037b565b005b61011e60048036038101906101199190610b78565b610565565b005b61013a60048036038101906101359190610c03565b610622565b6040516101479190610b31565b60405180910390f35b61015861063a565b005b610174600480360381019061016f9190610c30565b61064e565b6040516101819190610c92565b60405180910390f35b610192610737565b60405161019f9190610cbc565b60405180910390f35b6101b0610760565b6040516101bd9190610c92565b60405180910390f35b6101ce610766565b6040516101db9190610d4e565b60405180910390f35b6101fe60048036038101906101f99190610c03565b610779565b005b6102086107fc565b6000600281111561021c5761021b610cd7565b5b600060149054906101000a900460ff16600281111561023e5761023d610cd7565b5b036102885762015180426102529190610d98565b6003819055506001600060146101000a81548160ff0219169083600281111561027e5761027d610cd7565b5b0217905550610344565b6001600281111561029c5761029b610cd7565b5b600060149054906101000a900460ff1660028111156102be576102bd610cd7565b5b036103085762015180426102d29190610d98565b6003819055506002600060146101000a81548160ff021916908360028111156102fe576102fd610cd7565b5b0217905550610343565b6040517f08c379a000000000000000000000000000000000000000000000000000000000815260040161033a90610e29565b60405180910390fd5b5b565b600033838360405160200161035d93929190610f02565b60405160208183030381529060405280519060200120905092915050565b6001600281111561038f5761038e610cd7565b5b600060149054906101000a900460ff1660028111156103b1576103b0610cd7565b5b14806103fe5750600060028111156103cc576103cb610cd7565b5b600060149054906101000a900460ff1660028111156103ee576103ed610cd7565b5b1480156103fd57504260035411155b5b61043d576040517f08c379a000000000000000000000000000000000000000000000000000000000815260040161043490610f83565b60405180910390fd5b600160003373ffffffffffffffffffffffffffffffffffffffff1673ffffffffffffffffffffffffffffffffffffffff1681526020019081526020016000205433838360405160200161049293929190610f02565b60405160208183030381529060405280519060200120146104e8576040517f08c379a00000000000000000000000000000000000000000000000000000000081526004016104df90610fef565b60405180910390fd5b600160003373ffffffffffffffffffffffffffffffffffffffff1673ffffffffffffffffffffffffffffffffffffffff16815260200190815260200160002060009055600160028360405161053d919061100f565b9081526020016040518091039020600082825461055a9190610d98565b925050819055505050565b6000600281111561057957610578610cd7565b5b600060149054906101000a900460ff16600281111561059b5761059a610cd7565b5b146105db576040517f08c379a00000000000000000000000000000000000000000000000000000000081526004016105d290611072565b60405180910390fd5b80600160003373ffffffffffffffffffffffffffffffffffffffff1673ffffffffffffffffffffffffffffffffffffffff1681526020019081526020016000208190555050565b60016020528060005260406000206000915090505481565b6106426107fc565b61064c600061087a565b565b600060028081111561066357610662610cd7565b5b600060149054906101000a900460ff16600281111561068557610684610cd7565b5b14806106d25750600160028111156106a05761069f610cd7565b5b600060149054906101000a900460ff1660028111156106c2576106c1610cd7565b5b1480156106d157504260035411155b5b610711576040517f08c379a0000000000000000000000000000000000000000000000000000000008152600401610708906110de565b60405180910390fd5b600282604051610721919061100f565b9081526020016040518091039020549050919050565b60008060009054906101000a900473ffffffffffffffffffffffffffffffffffffffff16905090565b60035481565b600060149054906101000a900460ff1681565b6107816107fc565b600073ffffffffffffffffffffffffffffffffffffffff168173ffffffffffffffffffffffffffffffffffffffff16036107f0576040517f08c379a00000000000000000000000000000000000000000000000000000000081526004016107e790611170565b60405180910390fd5b6107f98161087a565b50565b61080461093e565b73ffffffffffffffffffffffffffffffffffffffff16610822610737565b73ffffffffffffffffffffffffffffffffffffffff1614610878576040517f08c379a000000000000000000000000000000000000000000000000000000000815260040161086f906111dc565b60405180910390fd5b565b60008060009054906101000a900473ffffffffffffffffffffffffffffffffffffffff169050816000806101000a81548173ffffffffffffffffffffffffffffffffffffffff021916908373ffffffffffffffffffffffffffffffffffffffff1602179055508173ffffffffffffffffffffffffffffffffffffffff168173ffffffffffffffffffffffffffffffffffffffff167f8be0079c531659141344cd1fd0a4f28419497f9722a3daafe3b4186f6b6457e060405160405180910390a35050565b600033905090565b6000604051905090565b600080fd5b600080fd5b600080fd5b600080fd5b6000601f19601f8301169050919050565b7f4e487b7100000000000000000000000000000000000000000000000000000000600052604160045260246000fd5b6109ad82610964565b810181811067ffffffffffffffff821117156109cc576109cb610975565b5b80604052505050565b60006109df610946565b90506109eb82826109a4565b919050565b600067ffffffffffffffff821115610a0b57610a0a610975565b5b610a1482610964565b9050602081019050919050565b82818337600083830152505050565b6000610a43610a3e846109f0565b6109d5565b905082815260208101848484011115610a5f57610a5e61095f565b5b610a6a848285610a21565b509392505050565b600082601f830112610a8757610a8661095a565b5b8135610a97848260208601610a30565b91505092915050565b60008060408385031215610ab757610ab6610950565b5b600083013567ffffffffffffffff811115610ad557610ad4610955565b5b610ae185828601610a72565b925050602083013567ffffffffffffffff811115610b0257610b01610955565b5b610b0e85828601610a72565b9150509250929050565b6000819050919050565b610b2b81610b18565b82525050565b6000602082019050610b466000830184610b22565b92915050565b610b5581610b18565b8114610b6057600080fd5b50565b600081359050610b7281610b4c565b92915050565b600060208284031215610b8e57610b8d610950565b5b6000610b9c84828501610b63565b91505092915050565b600073ffffffffffffffffffffffffffffffffffffffff82169050919050565b6000610bd082610ba5565b9050919050565b610be081610bc5565b8114610beb57600080fd5b50565b600081359050610bfd81610bd7565b92915050565b600060208284031215610c1957610c18610950565b5b6000610c2784828501610bee565b91505092915050565b600060208284031215610c4657610c45610950565b5b600082013567ffffffffffffffff811115610c6457610c63610955565b5b610c7084828501610a72565b91505092915050565b6000819050919050565b610c8c81610c79565b82525050565b6000602082019050610ca76000830184610c83565b92915050565b610cb681610bc5565b82525050565b6000602082019050610cd16000830184610cad565b92915050565b7f4e487b7100000000000000000000000000000000000000000000000000000000600052602160045260246000fd5b60038110610d1757610d16610cd7565b5b50565b6000819050610d2882610d06565b919050565b6000610d3882610d1a565b9050919050565b610d4881610d2d565b82525050565b6000602082019050610d636000830184610d3f565b92915050565b7f4e487b7100000000000000000000000000000000000000000000000000000000600052601160045260246000fd5b6000610da382610c79565b9150610dae83610c79565b9250828201905080821115610dc657610dc5610d69565b5b92915050565b600082825260208201905092915050565b7f566f746520646f6e650000000000000000000000000000000000000000000000600082015250565b6000610e13600983610dcc565b9150610e1e82610ddd565b602082019050919050565b60006020820190508181036000830152610e4281610e06565b9050919050565b60008160601b9050919050565b6000610e6182610e49565b9050919050565b6000610e7382610e56565b9050919050565b610e8b610e8682610bc5565b610e68565b82525050565b600081519050919050565b600081905092915050565b60005b83811015610ec5578082015181840152602081019050610eaa565b60008484015250505050565b6000610edc82610e91565b610ee68185610e9c565b9350610ef6818560208601610ea7565b80840191505092915050565b6000610f0e8286610e7a565b601482019150610f1e8285610ed1565b9150610f2a8284610ed1565b9150819050949350505050565b7f52657665616c20706572696f6420646f6e650000000000000000000000000000600082015250565b6000610f6d601283610dcc565b9150610f7882610f37565b602082019050919050565b60006020820190508181036000830152610f9c81610f60565b9050919050565b7f57726f6e6720566f746520262053616c74000000000000000000000000000000600082015250565b6000610fd9601183610dcc565b9150610fe482610fa3565b602082019050919050565b6000602082019050818103600083015261100881610fcc565b9050919050565b600061101b8284610ed1565b915081905092915050565b7f436f6d6d697420706572696f6420646f6e650000000000000000000000000000600082015250565b600061105c601283610dcc565b915061106782611026565b602082019050919050565b6000602082019050818103600083015261108b8161104f565b9050919050565b7f5761697420726573756c747320706572696f6400000000000000000000000000600082015250565b60006110c8601383610dcc565b91506110d382611092565b602082019050919050565b600060208201905081810360008301526110f7816110bb565b9050919050565b7f4f776e61626c653a206e6577206f776e657220697320746865207a65726f206160008201527f6464726573730000000000000000000000000000000000000000000000000000602082015250565b600061115a602683610dcc565b9150611165826110fe565b604082019050919050565b600060208201905081810360008301526111898161114d565b9050919050565b7f4f776e61626c653a2063616c6c6572206973206e6f7420746865206f776e6572600082015250565b60006111c6602083610dcc565b91506111d182611190565b602082019050919050565b600060208201905081810360008301526111f5816111b9565b905091905056fea2646970667358221220260643ee021a804a760ba3d4db815b489cca869c160400ff91888bcc65f0c29d64736f6c63430008110033",
  "linkReferences": {},
  "deployedLinkReferences": {}
}