{
  "_format": "hh-sol-artifact-1",
  "contractName": "CommitReveal",
  "sourceName": "contracts/CommitReveal.sol",
  "abi": [
    {
      "inputs": [
        {
          "internalType": "address",
          "name": "_signerAddress",
          "type": "address"
        }
      ],
      "stateMutability": "nonpayable",
      "type": "constructor"
    },
    {
      "anonymous": false,
      "inputs": [
        {
          "indexed": true,
          "internalType": "address",
          "name": "previousOwner",
          "type": "address"
        },
        {
          "indexed": true,
          "internalType": "address",
          "name": "newOwner",
          "type": "address"
        }
      ],
      "name": "OwnershipTransferred",
      "type": "event"
    },
    {
      "inputs": [
        {
          "internalType": "bytes32",
          "name": "_secretVote",
          "type": "bytes32"
        },
        {
          "internalType": "bytes",
          "name": "signature",
          "type": "bytes"
        }
      ],
      "name": "commitVote",
      "outputs": [],
      "stateMutability": "nonpayable",
      "type": "function"
    },
    {
      "inputs": [
        {
          "internalType": "string",
          "name": "vote",
          "type": "string"
        },
        {
          "internalType": "string",
          "name": "salt",
          "type": "string"
        }
      ],
      "name": "getHash",
      "outputs": [
        {
          "internalType": "bytes32",
          "name": "",
          "type": "bytes32"
        }
      ],
      "stateMutability": "view",
      "type": "function"
    },
    {
      "inputs": [
        {
          "internalType": "string",
          "name": "candidate",
          "type": "string"
        }
      ],
      "name": "getVotes",
      "outputs": [
        {
          "internalType": "uint256",
          "name": "",
          "type": "uint256"
        }
      ],
      "stateMutability": "view",
      "type": "function"
    },
    {
      "inputs": [],
      "name": "owner",
      "outputs": [
        {
          "internalType": "address",
          "name": "",
          "type": "address"
        }
      ],
      "stateMutability": "view",
      "type": "function"
    },
    {
      "inputs": [],
      "name": "renounceOwnership",
      "outputs": [],
      "stateMutability": "nonpayable",
      "type": "function"
    },
    {
      "inputs": [],
      "name": "revealDeadline",
      "outputs": [
        {
          "internalType": "uint256",
          "name": "",
          "type": "uint256"
        }
      ],
      "stateMutability": "view",
      "type": "function"
    },
    {
      "inputs": [
        {
          "internalType": "string",
          "name": "_vote",
          "type": "string"
        },
        {
          "internalType": "string",
          "name": "_salt",
          "type": "string"
        }
      ],
      "name": "revealVote",
      "outputs": [],
      "stateMutability": "nonpayable",
      "type": "function"
    },
    {
      "inputs": [],
      "name": "setStep",
      "outputs": [],
      "stateMutability": "nonpayable",
      "type": "function"
    },
    {
      "inputs": [],
      "name": "step",
      "outputs": [
        {
          "internalType": "enum CommitReveal.Step",
          "name": "",
          "type": "uint8"
        }
      ],
      "stateMutability": "view",
      "type": "function"
    },
    {
      "inputs": [
        {
          "internalType": "address",
          "name": "newOwner",
          "type": "address"
        }
      ],
      "name": "transferOwnership",
      "outputs": [],
      "stateMutability": "nonpayable",
      "type": "function"
    },
    {
      "inputs": [
        {
          "internalType": "address",
          "name": "",
          "type": "address"
        }
      ],
      "name": "voteByUser",
      "outputs": [
        {
          "internalType": "bytes32",
          "name": "",
          "type": "bytes32"
        }
      ],
      "stateMutability": "view",
      "type": "function"
    }
  ],
  "bytecode": "0x60806040526201518042620000159190620001b8565b6004553480156200002557600080fd5b5060405162001c6038038062001c6083398181016040528101906200004b91906200025d565b6200006b6200005f620000b360201b60201c565b620000bb60201b60201c565b80600160006101000a81548173ffffffffffffffffffffffffffffffffffffffff021916908373ffffffffffffffffffffffffffffffffffffffff160217905550506200028f565b600033905090565b60008060009054906101000a900473ffffffffffffffffffffffffffffffffffffffff169050816000806101000a81548173ffffffffffffffffffffffffffffffffffffffff021916908373ffffffffffffffffffffffffffffffffffffffff1602179055508173ffffffffffffffffffffffffffffffffffffffff168173ffffffffffffffffffffffffffffffffffffffff167f8be0079c531659141344cd1fd0a4f28419497f9722a3daafe3b4186f6b6457e060405160405180910390a35050565b6000819050919050565b7f4e487b7100000000000000000000000000000000000000000000000000000000600052601160045260246000fd5b6000620001c5826200017f565b9150620001d2836200017f565b9250828201905080821115620001ed57620001ec62000189565b5b92915050565b600080fd5b600073ffffffffffffffffffffffffffffffffffffffff82169050919050565b60006200022582620001f8565b9050919050565b620002378162000218565b81146200024357600080fd5b50565b60008151905062000257816200022c565b92915050565b600060208284031215620002765762000275620001f3565b5b6000620002868482850162000246565b91505092915050565b6119c1806200029f6000396000f3fe608060405234801561001057600080fd5b50600436106100a95760003560e01c8063805265e511610071578063805265e51461013e5780638da5cb5b1461016e578063b14b28a31461018c578063e1409301146101aa578063e25fe175146101c6578063f2fde38b146101e4576100a9565b806307b6e650146100ae57806327cf399a146100b85780633817e347146100e8578063648b813914610104578063715018a614610134575b600080fd5b6100b6610200565b005b6100d260048036038101906100cd9190610eb7565b610345565b6040516100df9190610f48565b60405180910390f35b61010260048036038101906100fd9190610eb7565b61037a565b005b61011e60048036038101906101199190610fc1565b610564565b60405161012b9190610f48565b60405180910390f35b61013c61057c565b005b61015860048036038101906101539190610fee565b610590565b6040516101659190611050565b60405180910390f35b610176610679565b604051610183919061107a565b60405180910390f35b6101946106a2565b6040516101a19190611050565b60405180910390f35b6101c460048036038101906101bf9190611121565b6106a8565b005b6101ce6107f3565b6040516101db91906111f8565b60405180910390f35b6101fe60048036038101906101f99190610fc1565b610806565b005b610208610889565b6000600281111561021c5761021b611181565b5b600160149054906101000a900460ff16600281111561023e5761023d611181565b5b036102875762015180426102529190611242565b60048190555060018060146101000a81548160ff0219169083600281111561027d5761027c611181565b5b0217905550610343565b6001600281111561029b5761029a611181565b5b600160149054906101000a900460ff1660028111156102bd576102bc611181565b5b036103075762015180426102d19190611242565b6004819055506002600160146101000a81548160ff021916908360028111156102fd576102fc611181565b5b0217905550610342565b6040517f08c379a0000000000000000000000000000000000000000000000000000000008152600401610339906112d3565b60405180910390fd5b5b565b600033838360405160200161035c939291906113ac565b60405160208183030381529060405280519060200120905092915050565b6001600281111561038e5761038d611181565b5b600160149054906101000a900460ff1660028111156103b0576103af611181565b5b14806103fd5750600060028111156103cb576103ca611181565b5b600160149054906101000a900460ff1660028111156103ed576103ec611181565b5b1480156103fc57504260045411155b5b61043c576040517f08c379a00000000000000000000000000000000000000000000000000000000081526004016104339061142d565b60405180910390fd5b600260003373ffffffffffffffffffffffffffffffffffffffff1673ffffffffffffffffffffffffffffffffffffffff16815260200190815260200160002054338383604051602001610491939291906113ac565b60405160208183030381529060405280519060200120146104e7576040517f08c379a00000000000000000000000000000000000000000000000000000000081526004016104de90611499565b60405180910390fd5b600260003373ffffffffffffffffffffffffffffffffffffffff1673ffffffffffffffffffffffffffffffffffffffff16815260200190815260200160002060009055600160038360405161053c91906114b9565b908152602001604051809103902060008282546105599190611242565b925050819055505050565b60026020528060005260406000206000915090505481565b610584610889565b61058e6000610907565b565b60006002808111156105a5576105a4611181565b5b600160149054906101000a900460ff1660028111156105c7576105c6611181565b5b14806106145750600160028111156105e2576105e1611181565b5b600160149054906101000a900460ff16600281111561060457610603611181565b5b14801561061357504260045411155b5b610653576040517f08c379a000000000000000000000000000000000000000000000000000000000815260040161064a9061151c565b60405180910390fd5b60038260405161066391906114b9565b9081526020016040518091039020549050919050565b60008060009054906101000a900473ffffffffffffffffffffffffffffffffffffffff16905090565b60045481565b6106f582828080601f016020809104026020016040519081016040528093929190818152602001838380828437600081840152601f19601f820116905080830192505050505050506109cb565b610734576040517f08c379a000000000000000000000000000000000000000000000000000000000815260040161072b90611588565b60405180910390fd5b6000600281111561074857610747611181565b5b600160149054906101000a900460ff16600281111561076a57610769611181565b5b146107aa576040517f08c379a00000000000000000000000000000000000000000000000000000000081526004016107a1906115f4565b60405180910390fd5b82600260003373ffffffffffffffffffffffffffffffffffffffff1673ffffffffffffffffffffffffffffffffffffffff16815260200190815260200160002081905550505050565b600160149054906101000a900460ff1681565b61080e610889565b600073ffffffffffffffffffffffffffffffffffffffff168173ffffffffffffffffffffffffffffffffffffffff160361087d576040517f08c379a000000000000000000000000000000000000000000000000000000000815260040161087490611686565b60405180910390fd5b61088681610907565b50565b610891610a65565b73ffffffffffffffffffffffffffffffffffffffff166108af610679565b73ffffffffffffffffffffffffffffffffffffffff1614610905576040517f08c379a00000000000000000000000000000000000000000000000000000000081526004016108fc906116f2565b60405180910390fd5b565b60008060009054906101000a900473ffffffffffffffffffffffffffffffffffffffff169050816000806101000a81548173ffffffffffffffffffffffffffffffffffffffff021916908373ffffffffffffffffffffffffffffffffffffffff1602179055508173ffffffffffffffffffffffffffffffffffffffff168173ffffffffffffffffffffffffffffffffffffffff167f8be0079c531659141344cd1fd0a4f28419497f9722a3daafe3b4186f6b6457e060405160405180910390a35050565b6000610a0e82610a00336040516020016109e59190611712565b60405160208183030381529060405280519060200120610a6d565b610a9d90919063ffffffff16565b73ffffffffffffffffffffffffffffffffffffffff16600160009054906101000a900473ffffffffffffffffffffffffffffffffffffffff1673ffffffffffffffffffffffffffffffffffffffff16149050919050565b600033905090565b600081604051602001610a80919061179a565b604051602081830303815290604052805190602001209050919050565b6000806000610aac8585610ac4565b91509150610ab981610b15565b819250505092915050565b6000806041835103610b055760008060006020860151925060408601519150606086015160001a9050610af987828585610c7b565b94509450505050610b0e565b60006002915091505b9250929050565b60006004811115610b2957610b28611181565b5b816004811115610b3c57610b3b611181565b5b0315610c785760016004811115610b5657610b55611181565b5b816004811115610b6957610b68611181565b5b03610ba9576040517f08c379a0000000000000000000000000000000000000000000000000000000008152600401610ba09061180c565b60405180910390fd5b60026004811115610bbd57610bbc611181565b5b816004811115610bd057610bcf611181565b5b03610c10576040517f08c379a0000000000000000000000000000000000000000000000000000000008152600401610c0790611878565b60405180910390fd5b60036004811115610c2457610c23611181565b5b816004811115610c3757610c36611181565b5b03610c77576040517f08c379a0000000000000000000000000000000000000000000000000000000008152600401610c6e9061190a565b60405180910390fd5b5b50565b6000807f7fffffffffffffffffffffffffffffff5d576e7357a4501ddfe92f46681b20a08360001c1115610cb6576000600391509150610d54565b600060018787878760405160008152602001604052604051610cdb9493929190611946565b6020604051602081039080840390855afa158015610cfd573d6000803e3d6000fd5b505050602060405103519050600073ffffffffffffffffffffffffffffffffffffffff168173ffffffffffffffffffffffffffffffffffffffff1603610d4b57600060019250925050610d54565b80600092509250505b94509492505050565b6000604051905090565b600080fd5b600080fd5b600080fd5b600080fd5b6000601f19601f8301169050919050565b7f4e487b7100000000000000000000000000000000000000000000000000000000600052604160045260246000fd5b610dc482610d7b565b810181811067ffffffffffffffff82111715610de357610de2610d8c565b5b80604052505050565b6000610df6610d5d565b9050610e028282610dbb565b919050565b600067ffffffffffffffff821115610e2257610e21610d8c565b5b610e2b82610d7b565b9050602081019050919050565b82818337600083830152505050565b6000610e5a610e5584610e07565b610dec565b905082815260208101848484011115610e7657610e75610d76565b5b610e81848285610e38565b509392505050565b600082601f830112610e9e57610e9d610d71565b5b8135610eae848260208601610e47565b91505092915050565b60008060408385031215610ece57610ecd610d67565b5b600083013567ffffffffffffffff811115610eec57610eeb610d6c565b5b610ef885828601610e89565b925050602083013567ffffffffffffffff811115610f1957610f18610d6c565b5b610f2585828601610e89565b9150509250929050565b6000819050919050565b610f4281610f2f565b82525050565b6000602082019050610f5d6000830184610f39565b92915050565b600073ffffffffffffffffffffffffffffffffffffffff82169050919050565b6000610f8e82610f63565b9050919050565b610f9e81610f83565b8114610fa957600080fd5b50565b600081359050610fbb81610f95565b92915050565b600060208284031215610fd757610fd6610d67565b5b6000610fe584828501610fac565b91505092915050565b60006020828403121561100457611003610d67565b5b600082013567ffffffffffffffff81111561102257611021610d6c565b5b61102e84828501610e89565b91505092915050565b6000819050919050565b61104a81611037565b82525050565b60006020820190506110656000830184611041565b92915050565b61107481610f83565b82525050565b600060208201905061108f600083018461106b565b92915050565b61109e81610f2f565b81146110a957600080fd5b50565b6000813590506110bb81611095565b92915050565b600080fd5b600080fd5b60008083601f8401126110e1576110e0610d71565b5b8235905067ffffffffffffffff8111156110fe576110fd6110c1565b5b60208301915083600182028301111561111a576111196110c6565b5b9250929050565b60008060006040848603121561113a57611139610d67565b5b6000611148868287016110ac565b935050602084013567ffffffffffffffff81111561116957611168610d6c565b5b611175868287016110cb565b92509250509250925092565b7f4e487b7100000000000000000000000000000000000000000000000000000000600052602160045260246000fd5b600381106111c1576111c0611181565b5b50565b60008190506111d2826111b0565b919050565b60006111e2826111c4565b9050919050565b6111f2816111d7565b82525050565b600060208201905061120d60008301846111e9565b92915050565b7f4e487b7100000000000000000000000000000000000000000000000000000000600052601160045260246000fd5b600061124d82611037565b915061125883611037565b92508282019050808211156112705761126f611213565b5b92915050565b600082825260208201905092915050565b7f566f746520646f6e650000000000000000000000000000000000000000000000600082015250565b60006112bd600983611276565b91506112c882611287565b602082019050919050565b600060208201905081810360008301526112ec816112b0565b9050919050565b60008160601b9050919050565b600061130b826112f3565b9050919050565b600061131d82611300565b9050919050565b61133561133082610f83565b611312565b82525050565b600081519050919050565b600081905092915050565b60005b8381101561136f578082015181840152602081019050611354565b60008484015250505050565b60006113868261133b565b6113908185611346565b93506113a0818560208601611351565b80840191505092915050565b60006113b88286611324565b6014820191506113c8828561137b565b91506113d4828461137b565b9150819050949350505050565b7f52657665616c20706572696f6420646f6e650000000000000000000000000000600082015250565b6000611417601283611276565b9150611422826113e1565b602082019050919050565b600060208201905081810360008301526114468161140a565b9050919050565b7f57726f6e6720566f746520262053616c74000000000000000000000000000000600082015250565b6000611483601183611276565b915061148e8261144d565b602082019050919050565b600060208201905081810360008301526114b281611476565b9050919050565b60006114c5828461137b565b915081905092915050565b7f5761697420726573756c747320706572696f6400000000000000000000000000600082015250565b6000611506601383611276565b9150611511826114d0565b602082019050919050565b60006020820190508181036000830152611535816114f9565b9050919050565b7f5369676e61747572652056616c69646174696f6e204661696c65640000000000600082015250565b6000611572601b83611276565b915061157d8261153c565b602082019050919050565b600060208201905081810360008301526115a181611565565b9050919050565b7f436f6d6d697420706572696f6420646f6e650000000000000000000000000000600082015250565b60006115de601283611276565b91506115e9826115a8565b602082019050919050565b6000602082019050818103600083015261160d816115d1565b9050919050565b7f4f776e61626c653a206e6577206f776e657220697320746865207a65726f206160008201527f6464726573730000000000000000000000000000000000000000000000000000602082015250565b6000611670602683611276565b915061167b82611614565b604082019050919050565b6000602082019050818103600083015261169f81611663565b9050919050565b7f4f776e61626c653a2063616c6c6572206973206e6f7420746865206f776e6572600082015250565b60006116dc602083611276565b91506116e7826116a6565b602082019050919050565b6000602082019050818103600083015261170b816116cf565b9050919050565b600061171e8284611324565b60148201915081905092915050565b7f19457468657265756d205369676e6564204d6573736167653a0a333200000000600082015250565b6000611763601c83611346565b915061176e8261172d565b601c82019050919050565b6000819050919050565b61179461178f82610f2f565b611779565b82525050565b60006117a582611756565b91506117b18284611783565b60208201915081905092915050565b7f45434453413a20696e76616c6964207369676e61747572650000000000000000600082015250565b60006117f6601883611276565b9150611801826117c0565b602082019050919050565b60006020820190508181036000830152611825816117e9565b9050919050565b7f45434453413a20696e76616c6964207369676e6174757265206c656e67746800600082015250565b6000611862601f83611276565b915061186d8261182c565b602082019050919050565b6000602082019050818103600083015261189181611855565b9050919050565b7f45434453413a20696e76616c6964207369676e6174757265202773272076616c60008201527f7565000000000000000000000000000000000000000000000000000000000000602082015250565b60006118f4602283611276565b91506118ff82611898565b604082019050919050565b60006020820190508181036000830152611923816118e7565b9050919050565b600060ff82169050919050565b6119408161192a565b82525050565b600060808201905061195b6000830187610f39565b6119686020830186611937565b6119756040830185610f39565b6119826060830184610f39565b9594505050505056fea2646970667358221220ae9e23ffd0f32161b4b2ce4367ddb55970231338fde1188c996fa3f340fd376664736f6c63430008110033",
  "linkReferences": {},
  "deployedLinkReferences": {}
}